{
  "_format": "hh-sol-artifact-1",
  "contractName": "PauserSet",
  "sourceName": "contracts/PauserSet.sol",
  "abi": [
    {
      "inputs": [
        {
          "internalType": "address[]",
          "name": "_pausers",
          "type": "address[]"
        }
      ],
      "stateMutability": "nonpayable",
      "type": "constructor"
    },
    {
      "inputs": [
        {
          "internalType": "address",
          "name": "pauser",
          "type": "address"
        }
      ],
      "name": "DuplicatePauserAddress",
      "type": "error"
    },
    {
      "inputs": [
        {
          "internalType": "uint256",
          "name": "index",
          "type": "uint256"
        },
        {
          "internalType": "uint256",
          "name": "length",
          "type": "uint256"
        }
      ],
      "name": "IndexOutOfBounds",
      "type": "error"
    },
    {
      "inputs": [],
      "name": "NoPausersProvided",
      "type": "error"
    },
    {
      "inputs": [],
      "name": "ZeroAddressNotAllowed",
      "type": "error"
    },
    {
      "anonymous": false,
      "inputs": [
        {
          "indexed": true,
          "internalType": "address",
          "name": "pauser",
          "type": "address"
        }
      ],
      "name": "PauserAdded",
      "type": "event"
    },
    {
      "inputs": [],
      "name": "getAllPausers",
      "outputs": [
        {
          "internalType": "address[]",
          "name": "",
          "type": "address[]"
        }
      ],
      "stateMutability": "view",
      "type": "function"
    },
    {
      "inputs": [
        {
          "internalType": "uint256",
          "name": "_index",
          "type": "uint256"
        }
      ],
      "name": "getPauserAtIndex",
      "outputs": [
        {
          "internalType": "address",
          "name": "",
          "type": "address"
        }
      ],
      "stateMutability": "view",
      "type": "function"
    },
    {
      "inputs": [],
      "name": "getPauserCount",
      "outputs": [
        {
          "internalType": "uint256",
          "name": "",
          "type": "uint256"
        }
      ],
      "stateMutability": "view",
      "type": "function"
    },
    {
      "inputs": [
        {
          "internalType": "address",
          "name": "_address",
          "type": "address"
        }
      ],
      "name": "isPauser",
      "outputs": [
        {
          "internalType": "bool",
          "name": "",
          "type": "bool"
        }
      ],
      "stateMutability": "view",
      "type": "function"
    }
  ],
  "bytecode": "0x608060405234801561000f575f80fd5b5060405161051838038061051883398101604081905261002e916101b7565b80515f0361004f5760405163618202b360e01b815260040160405180910390fd5b5f5b8151811015610181575f82828151811061006d5761006d610276565b602002602001015190505f6001600160a01b0316816001600160a01b0316036100a9576040516342bcdf7f60e11b815260040160405180910390fd5b6001600160a01b0381165f9081526020819052604090205460ff16156100f1576040516333de808b60e01b81526001600160a01b038216600482015260240160405180910390fd5b6001600160a01b0381165f81815260208190526040808220805460ff19166001908117909155805480820182559083527fb10e2d527612073b26eecdfd717e6a320cf44b4afac2b0732d9fcbe2b7fa0cf60180546001600160a01b03191684179055517f6719d08c1888103bea251a4ed56406bd0c3e69723c8a1686e017e7bbe159b6f89190a250600101610051565b505061028a565b634e487b7160e01b5f52604160045260245ffd5b80516001600160a01b03811681146101b2575f80fd5b919050565b5f60208083850312156101c8575f80fd5b82516001600160401b03808211156101de575f80fd5b818501915085601f8301126101f1575f80fd5b81518181111561020357610203610188565b8060051b604051601f19603f8301168101818110858211171561022857610228610188565b604052918252848201925083810185019188831115610245575f80fd5b938501935b8285101561026a5761025b8561019c565b8452938501939285019261024a565b98975050505050505050565b634e487b7160e01b5f52603260045260245ffd5b610281806102975f395ff3fe608060405234801561000f575f80fd5b506004361061004a575f3560e01c806346fbf68e1461004e5780637adfe96e1461008e57806391136b65146100b9578063f0333766146100ca575b5f80fd5b61007961005c3660046101a7565b6001600160a01b03165f9081526020819052604090205460ff1690565b60405190151581526020015b60405180910390f35b6100a161009c3660046101d4565b6100df565b6040516001600160a01b039091168152602001610085565b600154604051908152602001610085565b6100d2610147565b60405161008591906101eb565b6001545f90821061011a576001546040516363a056dd60e01b8152610111918491600401918252602082015260400190565b60405180910390fd5b6001828154811061012d5761012d610237565b5f918252602090912001546001600160a01b031692915050565b6060600180548060200260200160405190810160405280929190818152602001828054801561019d57602002820191905f5260205f20905b81546001600160a01b0316815260019091019060200180831161017f575b5050505050905090565b5f602082840312156101b7575f80fd5b81356001600160a01b03811681146101cd575f80fd5b9392505050565b5f602082840312156101e4575f80fd5b5035919050565b602080825282518282018190525f9190848201906040850190845b8181101561022b5783516001600160a01b031683529284019291840191600101610206565b50909695505050505050565b634e487b7160e01b5f52603260045260245ffdfea26469706673582212205d0ae70fae096ebd7e75e75dfa22295146da02227140143e901c671d41574cd864736f6c63430008180033",
  "linkReferences": {},
  "deployedLinkReferences": {}
}